S01000004156525F4750494F2E737265639D
S11300000C945A000C946F000C946F000C946F00C5
S11300100C946F000C946F000C946F000C946F00A0
S11300200C946F000C946F000C946F000C946F0090
S11300300C946F000C946F000C946F000C946F0080
S11300400C946F000C946F000C946F000C946F0070
S11300500C946F000C946F000C946F000C946F0060
S11300600C946F000C946F000C946F000C946F0050
S11300700C946F000C946F000C946F000C946F0040
S11300800C946F000C946F000C946F000C946F0030
S11300900C946F000C946F000C946F000C946F0020
S11300A00C946F000C946F000C946F000C946F0010
S11300B00C946F0011241FBECFEFD8E0DEBFCDBF7C
S11300C011E0A0E0B1E0E4E6F1E002C005900D9299
S11300D0AE30B107D9F70E9493000C94B0000C9491
S11300E000009093C5008093C40088E18093C10010
S11300F086E08093C2000895E0ECF0E0908195FFE3
S1130100FDCF8093C6000895CF93DF93EC018881DF
S1130110882331F021960E947C0089918111FBCFC4
S1130120DF91CF910895CF93DF93CDB7DEB72D97AD
S11301300FB6F894DEBF0FBECDBF78948DE0E0E03B
S1130140F1E0DE01119601900D928A95E1F787E6C0
S113015090E00E947100CE0101960E948400FFCFBE
S1070160F894FFCF3D
S111016448656C6C6F20576F726C642100004C
S9030000FC
