:100000000C945A000C9464000C9464000C946400EA
:100010000C9464000C9464000C9464000C946400D0
:100020000C9464000C9464000C9464000C946600BE
:100030000C9471000C9464000C9464000C946400A3
:100040000C9464000C9464000C9464000C946400A0
:100050000C9464000C9464000C9464000C94640090
:100060000C9464000C9464000C9464000C94640080
:100070000C9464000C9464000C9464000C94640070
:100080000C9464000C9464000C9464000C94640060
:100090000C9464000C9464000C9464000C94640050
:1000A0000C9464000C9464000C9464000C94640040
:1000B0000C94640011241FBECFEFD8E0DEBFCDBF8B
:1000C0000E9493000C9499000C9400001F920F92D0
:1000D0000FB60F9211242D9A0F900FBE0F901F9004
:1000E00018951F920F920FB60F9211242D980F9012
:1000F0000FBE0F901F901895E1E8F0E080818C60B2
:100100008083EFE6F0E08081866080838CE093E07E
:10011000909389008093880080E991E090938B0010
:1001200080938A000895259A27980E947C007894ED
:06013000FFCFF894FFCFA1
:00000001FF
