:100000000C945A000C946E000C946C000C946C00D0
:100010000C946C000C946C000C946C000C946C00B0
:100020000C946C000C946C000C946C000C946C00A0
:100030000C946C000C946C000C946C000C946C0090
:100040000C946C000C946C000C946C000C946C0080
:100050000C946C000C946C000C946C000C946C0070
:100060000C946C000C946C000C946C000C946C0060
:100070000C946C000C946C000C946C000C946C0050
:100080000C946C000C946C000C946C000C946C0040
:100090000C946C000C946C000C946C000C946C0030
:1000A0000C946C000C946C000C946C000C946C0020
:1000B0000C946C0011241FBECFEFD8E0DEBFCDBF83
:1000C00021E0A0E0B1E001C01D92A235B207E1F746
:1000D0000E94A8000C94DE000C9400001F920F9266
:1000E0000FB60F9211248F939F93EF93FF931D9A56
:1000F0008091000190910101019781F4109281009B
:10010000E4E8F0E080819181909303018093020103
:100110001182108210920101109200018091000161
:1001200090910101892B59F4E1E8F0E08081816030
:10013000808381E090E09093010180930001FF9122
:10014000EF919F918F910F900FBE0F901F90189578
:100150000E94BF002B9A25E02A95F1F72B988091F9
:10016000020190910301892BA9F38FE996E821E020
:10017000815090402040E1F700C00000EBCF239A6F
:1001800052985A9A83ED90E30197F1F700C000006E
:100190007894E9E6F0E0808181608083E89AE4E089
:1001A000F1E01182108213821282138E128E158E4C
:1001B000148E15AA14AA17AA16AA0895F894FFCFA8
:00000001FF
