:100000000C945A000C946C000C946C000C946C00D2
:100010000C946C000C946C000C946C000C946C00B0
:100020000C946C000C946C000C9487000C946E0083
:100030000C946C000C946C000C946C000C946C0090
:100040000C946C000C946C000C946C000C946C0080
:100050000C946C000C946C000C946C000C946C0070
:100060000C946C000C946C000C946C000C946C0060
:100070000C946C000C946C000C946C000C946C0050
:100080000C946C000C946C000C946C000C946C0040
:100090000C946C000C946C000C946C000C946C0030
:1000A0000C946C000C946C000C946C000C946C0020
:1000B0000C946C0011241FBECFEFD8E0DEBFCDBF83
:1000C00021E0A0E0B1E001C01D92AC30B207E1F741
:1000D0000E942C010C949C020C9400001F920F9221
:1000E0000FB60F9211248F939F9395B184E09827B8
:1000F00095B994E09A95F1F795B1892785B92D9A2C
:100100009F918F910F900FBE0F901F9018951F9287
:100110000F920FB60F921124CF92DF92EF92FF92BF
:100120002F933F934F935F936F937F938F939F93FF
:10013000AF93BF93CF93DF93EF93FF9380918100B1
:1001400086FF0EC0E1E8F0E080818F7B80838091A4
:1001500086009091870090930B0180930A0142C022
:10016000E1E8F0E080818064808360918600709196
:100170008700709305016093040180910A019091BA
:100180000B01EB01C81BD90BD0930901C0930801E7
:10019000609106017091070180E090E00E94A1014A
:1001A0006B017C01BE01DD0F880B990B0E94A3013E
:1001B0009B01AC01C701B6010E942F0220E030E094
:1001C00040E251E40E942F0220E030E041E154E49B
:1001D0000E942F016093000170930101809302013E
:1001E000909303012D98FF91EF91DF91CF91BF91F3
:1001F000AF919F918F917F916F915F914F913F91BF
:100200002F91FF90EF90DF90CF900F900FBE0F9047
:100210001F901895229AE1E8F0E080818068808341
:10022000808183608083808188608083AFE6B0E0D6
:100230008C9182628C938081806480838CE594E4CD
:10024000909389008093880084E090E09093070168
:1002500080930601789408950E940A01FFCF0E94BE
:1002600043010C94F5010E94EE0158F00E94E70151
:1002700040F029F45F3F29F00C94DE0151110C94F9
:1002800029020C94E4010E94060268F39923B1F359
:10029000552391F3951B550BBB27AA2762177307AC
:1002A000840738F09F5F5F4F220F331F441FAA1F40
:1002B000A9F335D00E2E3AF0E0E832D091505040FC
:1002C000E695001CCAF72BD0FE2F29D0660F771FAA
:1002D000881FBB1F261737074807AB07B0E809F090
:1002E000BB0B802DBF01FF2793585F4F3AF09E3F15
:1002F000510578F00C94DE010C9429025F3FE4F381
:10030000983ED4F3869577956795B795F7959F5F57
:10031000C9F7880F911D9695879597F90895E1E0A3
:10032000660F771F881FBB1F621773078407BA0702
:1003300020F0621B730B840BBA0BEE1F88F7E0955D
:100340000895E89409C097FB3EF4909580957095C8
:1003500061957F4F8F4F9F4F9923A9F0F92F96E911
:10036000BB279395F695879577956795B795F11186
:10037000F8CFFAF4BB0F11F460FF1BC06F5F7F4F23
:100380008F4F9F4F16C0882311F096E911C0772335
:1003900021F09EE8872F762F05C0662371F096E83E
:1003A000862F70E060E02AF09A95660F771F881F0D
:1003B000DAF7880F9695879597F9089597F99F67CB
:1003C00080E870E060E008959FEF80EC08950024DD
:1003D0000A941616170618060906089500240A94AA
:1003E00012161306140605060895092E0394000C30
:1003F00011F4882352F0BB0F40F4BF2B11F460FFBF
:1004000004C06F5F7F4F8F4F9F4F089557FD9058E7
:10041000440F551F59F05F3F71F04795880F97FBC8
:10042000991F61F09F3F79F0879508951216130682
:100430001406551FF2CF4695F1DF08C016161706B1
:100440001806991FF1CF86957105610508940895E6
:10045000E894BB2766277727CB0197F908950E9478
:1004600042020C94F5010E94E70138F00E94EE016F
:1004700020F0952311F00C94DE010C94E40111247A
:100480000C9429020E94060270F3959FC1F3950F08
:1004900050E0551F629FF001729FBB27F00DB11D08
:1004A000639FAA27F00DB11DAA1F649F6627B00D98
:1004B000A11D661F829F2227B00DA11D621F739F81
:1004C000B00DA11D621F839FA00D611D221F749F8F
:1004D0003327A00D611D231F849F600D211D822FD6
:1004E000762F6A2F11249F5750409AF0F1F08823FD
:1004F0004AF0EE0FFF1FBB1F661F771F881F91502A
:100500005040A9F79E3F510580F00C94DE010C94F9
:1005100029025F3FE4F3983ED4F38695779567957B
:10052000B795F795E7959F5FC1F7FE2B880F911D53
:0C0530009695879597F90895F894FFCFF1
:00000001FF
